{"abi":[{"type":"function","name":"getUserDetails","inputs":[{"name":"_username","type":"string","internalType":"string"}],"outputs":[{"name":"","type":"string","internalType":"string"},{"name":"","type":"string","internalType":"string"},{"name":"","type":"uint256","internalType":"uint256"},{"name":"","type":"string","internalType":"string"},{"name":"","type":"string","internalType":"string"},{"name":"","type":"string","internalType":"string"},{"name":"","type":"string","internalType":"string"},{"name":"","type":"string","internalType":"string"}],"stateMutability":"view"},{"type":"function","name":"login","inputs":[{"name":"_username","type":"string","internalType":"string"},{"name":"_password","type":"string","internalType":"string"}],"outputs":[{"name":"","type":"bool","internalType":"bool"}],"stateMutability":"view"},{"type":"function","name":"register","inputs":[{"name":"_fullName","type":"string","internalType":"string"},{"name":"_username","type":"string","internalType":"string"},{"name":"_password","type":"string","internalType":"string"},{"name":"_age","type":"uint256","internalType":"uint256"},{"name":"_gender","type":"string","internalType":"string"},{"name":"_phone","type":"string","internalType":"string"},{"name":"_email","type":"string","internalType":"string"},{"name":"_walletAddress","type":"string","internalType":"string"},{"name":"_walletName","type":"string","internalType":"string"}],"outputs":[],"stateMutability":"nonpayable"}],"bytecode":{"object":"0x6080604052348015600f57600080fd5b50610d068061001f6000396000f3fe608060405234801561001057600080fd5b50600436106100415760003560e01c8063085ba0741461004657806358467dbc14610076578063c8a5347614610099575b600080fd5b61005961005436600461081f565b6100ae565b60405161006d9897969594939291906108a4565b60405180910390f35b610089610084366004610945565b61053e565b604051901515815260200161006d565b6100ac6100a73660046109a9565b6105cd565b005b606080600060608060608060606000808a6040516100cc9190610af3565b908152604051908190036020019020600981015490915060ff1661012d5760405162461bcd60e51b8152602060048201526013602482015272155cd95c881b9bdd081c9959da5cdd195c9959606a1b60448201526064015b60405180910390fd5b80600001816002018260030154836004018460050185600601866007018760080187805461015a90610b0f565b80601f016020809104026020016040519081016040528092919081815260200182805461018690610b0f565b80156101d35780601f106101a8576101008083540402835291602001916101d3565b820191906000526020600020905b8154815290600101906020018083116101b657829003601f168201915b505050505097508680546101e690610b0f565b80601f016020809104026020016040519081016040528092919081815260200182805461021290610b0f565b801561025f5780601f106102345761010080835404028352916020019161025f565b820191906000526020600020905b81548152906001019060200180831161024257829003601f168201915b5050505050965084805461027290610b0f565b80601f016020809104026020016040519081016040528092919081815260200182805461029e90610b0f565b80156102eb5780601f106102c0576101008083540402835291602001916102eb565b820191906000526020600020905b8154815290600101906020018083116102ce57829003601f168201915b505050505094508380546102fe90610b0f565b80601f016020809104026020016040519081016040528092919081815260200182805461032a90610b0f565b80156103775780601f1061034c57610100808354040283529160200191610377565b820191906000526020600020905b81548152906001019060200180831161035a57829003601f168201915b5050505050935082805461038a90610b0f565b80601f01602080910402602001604051908101604052809291908181526020018280546103b690610b0f565b80156104035780601f106103d857610100808354040283529160200191610403565b820191906000526020600020905b8154815290600101906020018083116103e657829003601f168201915b5050505050925081805461041690610b0f565b80601f016020809104026020016040519081016040528092919081815260200182805461044290610b0f565b801561048f5780601f106104645761010080835404028352916020019161048f565b820191906000526020600020905b81548152906001019060200180831161047257829003601f168201915b505050505091508080546104a290610b0f565b80601f01602080910402602001604051908101604052809291908181526020018280546104ce90610b0f565b801561051b5780601f106104f05761010080835404028352916020019161051b565b820191906000526020600020905b8154815290600101906020018083116104fe57829003601f168201915b505050505090509850985098509850985098509850985050919395975091939597565b6000806000846040516105519190610af3565b908152604051908190036020019020600981015490915060ff1680156105c55750826040516020016105839190610af3565b60405160208183030381529060405280519060200120816002016040516020016105ad9190610b49565b60405160208183030381529060405280519060200120145b949350505050565b6000886040516105dd9190610af3565b9081526040519081900360200190206009015460ff16156106405760405162461bcd60e51b815260206004820152601760248201527f5573657220616c726561647920726567697374657265640000000000000000006044820152606401610124565b6040518061014001604052808a8152602001898152602001888152602001878152602001868152602001858152602001848152602001838152602001828152602001600115158152506000896040516106999190610af3565b908152604051908190036020019020815181906106b69082610c10565b50602082015160018201906106cb9082610c10565b50604082015160028201906106e09082610c10565b5060608201516003820155608082015160048201906106ff9082610c10565b5060a082015160058201906107149082610c10565b5060c082015160068201906107299082610c10565b5060e0820151600782019061073e9082610c10565b5061010082015160088201906107549082610c10565b5061012091909101516009909101805460ff1916911515919091179055505050505050505050565b634e487b7160e01b600052604160045260246000fd5b600082601f8301126107a357600080fd5b813567ffffffffffffffff808211156107be576107be61077c565b604051601f8301601f19908116603f011681019082821181831017156107e6576107e661077c565b816040528381528660208588010111156107ff57600080fd5b836020870160208301376000602085830101528094505050505092915050565b60006020828403121561083157600080fd5b813567ffffffffffffffff81111561084857600080fd5b6105c584828501610792565b60005b8381101561086f578181015183820152602001610857565b50506000910152565b60008151808452610890816020860160208601610854565b601f01601f19169290920160200192915050565b60006101008083526108b88184018c610878565b905082810360208401526108cc818b610878565b905088604084015282810360608401526108e68189610878565b905082810360808401526108fa8188610878565b905082810360a084015261090e8187610878565b905082810360c08401526109228186610878565b905082810360e08401526109368185610878565b9b9a5050505050505050505050565b6000806040838503121561095857600080fd5b823567ffffffffffffffff8082111561097057600080fd5b61097c86838701610792565b9350602085013591508082111561099257600080fd5b5061099f85828601610792565b9150509250929050565b60008060008060008060008060006101208a8c0312156109c857600080fd5b893567ffffffffffffffff808211156109e057600080fd5b6109ec8d838e01610792565b9a5060208c0135915080821115610a0257600080fd5b610a0e8d838e01610792565b995060408c0135915080821115610a2457600080fd5b610a308d838e01610792565b985060608c0135975060808c0135915080821115610a4d57600080fd5b610a598d838e01610792565b965060a08c0135915080821115610a6f57600080fd5b610a7b8d838e01610792565b955060c08c0135915080821115610a9157600080fd5b610a9d8d838e01610792565b945060e08c0135915080821115610ab357600080fd5b610abf8d838e01610792565b93506101008c0135915080821115610ad657600080fd5b50610ae38c828d01610792565b9150509295985092959850929598565b60008251610b05818460208701610854565b9190910192915050565b600181811c90821680610b2357607f821691505b602082108103610b4357634e487b7160e01b600052602260045260246000fd5b50919050565b6000808354610b5781610b0f565b60018281168015610b6f5760018114610b8457610bb3565b60ff1984168752821515830287019450610bb3565b8760005260208060002060005b85811015610baa5781548a820152908401908201610b91565b50505082870194505b50929695505050505050565b601f821115610c0b576000816000526020600020601f850160051c81016020861015610be85750805b601f850160051c820191505b81811015610c0757828155600101610bf4565b5050505b505050565b815167ffffffffffffffff811115610c2a57610c2a61077c565b610c3e81610c388454610b0f565b84610bbf565b602080601f831160018114610c735760008415610c5b5750858301515b600019600386901b1c1916600185901b178555610c07565b600085815260208120601f198616915b82811015610ca257888601518255948401946001909101908401610c83565b5085821015610cc05787850151600019600388901b60f8161c191681555b5050505050600190811b0190555056fea264697066735822122061fba5b41ae2a745373cedd31056f41b38e653f6f7eb6f24a12bbcf3613255ca64736f6c63430008190033","linkReferences":{}},"methodIdentifiers":{"getUserDetails(string)":"085ba074","login(string,string)":"58467dbc","register(string,string,string,uint256,string,string,string,string,string)":"c8a53476"},"id":26}